:020000040800F2
:1000000018520120D50300086326000809220008C1
:1000100061260008271E0008893300080000000040
:1000200000000000000000000000000015030008B0
:10003000B11E00080000000071030008C52F000871
:10004000EF030008EF030008EF030008392C000855
:10005000EF030008EF030008B51E0008EF030008D7
:10006000F11E00082D1F0008691F0008EF0300089B
:10007000EF030008EF030008EF030008EF03000898
:10008000EF030008EF030008EF030008EF03000888
:10009000EF030008EF030008EF030008EF03000878
:1000A000EF030008EF030008EF030008EF03000868
:1000B000EF030008EF030008EF030008EF03000858
:1000C000EF030008EF030008EF030008EF03000848
:1000D000EF0300084D300008E930000849310008FE
:1000E000EF030008EF030008EF030008EF03000828
:1000F000EF030008EF030008EF030008EF03000818
:10010000EF030008EF030008EF030008EF03000807
:10011000EF030008EF030008EF030008EF030008F7
:10012000EF030008EF030008EF030008EF030008E7
:10013000EF030008EF030008EF030008EF030008D7
:10014000EF030008EF030008EF030008EF030008C7
:10015000EF030008EF030008EF030008A9310008CF
:10016000EF030008EF030008EF030008EF030008A7
:10017000EF030008EF030008EF030008EF03000897
:10018000EF030008EF03000800F002F800F0B2F8F7
:100190000AA090E8000C82448344AAF10107DA45E2
:1001A00001D100F0A7F8AFF2090EBAE80F0013F082
:1001B000010F18BFFB1A43F001031847B0B000004D
:1001C000D0B000000A444FF0000C10F8013B13F0CF
:1001D000070408BF10F8014B1D1108BF10F8015BA0
:1001E000641E05D010F8016B641E01F8016BF9D193
:1001F00013F0080F1EBF10F8014BAD1C0C1B09D1EA
:100200006D1E58BF01F801CBFAD505E014F8016B5B
:1002100001F8016B6D1EF9D59142D6D370470000ED
:100220000023002400250026103A28BF78C1FBD8FF
:10023000520728BF30C148BF0B6070476E2900F0DD
:100240002884702900F0DB8166290AF03D82652947
:100250000AF03A8267290AF037826129AFF30080F9
:1002600003681B0A28BF41F08001692900F04C8116
:10027000642900F04981752900F046816F2900F05A
:100280002E87782900F0A781E92900F0C986E429A2
:1002900000F0C686F52900F0C386EF2900F02B8711
:1002A000F82900F0A6810368DB0928BF41F080012E
:1002B000632900F03886732900F03D86E32901F0B8
:1002C0005180F32901F05680002070471FB50AF0D5
:1002D000F6F900F0B3FF0400002000210AF062F9F3
:1002E000401C6060002000210AF046F9E0601FBD5C
:1002F00010B510BD01F046F91146FFF7E7FF06F013
:1003000069FA01F072F903B4FFF7F2FF03BC03F0DE
:1003100072F800002C4B19680868B0E8F04F80F3C1
:100320000988BFF36F8F4FF0000080F3118870478A
:100330000000000008480068006880F308884FF05B
:10034000000080F3148862B661B6BFF34F8FBFF32D
:100350006F8F00DF00BF00BF08ED00E0DFF80C008A
:10036000016841F470010160704700BF88ED00E052
:10037000EFF30980BFF36F8F134B1A681EF0100F55
:1003800008BF20ED108A20E9F04F106009B44FF04B
:10039000500080F31188BFF34F8FBFF36F8F08F0C9
:1003A00043FD4FF0000080F3118809BC196808680C
:1003B000B0E8F04F1EF0100F08BFB0EC108A80F3C9
:1003C0000988BFF36F8F7047F4000020EFF30580BA
:1003D000704700000948804709480047FEE7FEE7EC
:1003E000FEE7FEE7FEE7FEE7FEE7FEE7FEE7FEE7E5
:1003F00004480549054A064B70470000F12F0008E4
:1004000089010008184C012018520120184E0120C3
:10041000184E0120704700000A46014900F090BDC7
:10042000E00000200FB4044910B503AA029800F0C0
:1004300087FD10BC5DF814FBE00000200FB41CB574
:10044000084B06AA7B4469460090059800F049FDD8
:1004500004460020694600F057FD20461CBC5DF8AC
:1004600014FB0000C10A000070B5044685690068ED
:10047000C10601D5302600E02026C00707D070BD98
:10048000D4E9012130469047206A401C20626D1E4D
:10049000F6D570BD70B5044685690078C00707D1F0
:1004A00070BDD4E9012120209047206A401C2062C1
:1004B0006D1EF6D570BD70B50C460546012A05D0F7
:1004C0002878800600D5EA69002302E0012305E0D0
:1004D0005B1C934202D2E05C0028F9D1A869E618BF
:1004E000C01AA861286A184428622846FFF7BCFF92
:1004F00004E0D5E9012114F8010B9047B442F8D388
:100500002846FFF7C7FF70BD2DE9F04106460024DD
:1005100010687529314616A510D000F04FFA002852
:1005200002DA404213A507E031688A0701D512A517
:1005300002E0490704D511A5012401E000F047FAC3
:1005400000210A2206F1240709E0B0FBF2FCB0FB0F
:10055000F2F302FB1C00303078541846491C002886
:10056000F3D123462A463046BDE8F04100F038BAC0
:10057000000000002D0000002B0000002000000003
:10058000F0B40D460188090502D5214C7C4402E0F7
:100590001F4C7C440E34002100F1240608E002F0D8
:1005A0000F071209E75D42EA03721B097754491CE1
:1005B00052EA0307F3D102780023120704D5702D05
:1005C00006D009B1022311342246F0BC00F008BA6B
:1005D00001231034F8E770B504460D462146106833
:1005E00000F0F5F9024629462046BDE87040002398
:1005F000C6E7D21D22F00703D3E90023C0E7036852
:10060000126843F0200303600823C3610023B7E7A7
:10061000FAA800002DE9F05F894604464FF0000A71
:10062000DFF874B1FB44C0F820A02046E168884799
:10063000002874D0252806D0D4E901219047206AEB
:10064000401C2062F1E700265F462046E1688847AB
:100650002028054607DB312D05D2781910F8200C2B
:1006600008B10643F1E7B00701D526F00406C4F847
:100670001CA00027C4F818A02A2D09D0284602F093
:10068000B3FE38B304EB8708303DC8F8185019E0C2
:1006900059F8041B204604EB87029161E168884702
:1006A000012F054618D1E069002820DA26F020063F
:1006B0001DE0D8F8180000EB800005EB4000303852
:1006C000C8F818002046E1688847054602F08CFE0D
:1006D0000028EED1012F0AD02E2D08D12046E16846
:1006E00088477F1C0546022F46F02006C4DBA06920
:1006F000002803DA404246F00106A061F00701D06D
:1007000026F010066C2D0BD0682D09D04C2D39D059
:100710006A2D35D0742D35D07A2D33D016E038E0DF
:10072000E1682F4620468847B842054609D16C2F1C
:1007300026D04FF48060E16806432046884705468E
:1007400004E06C2F1AD04FF4807006430DB3A5F16E
:100750004100192802D8203546F400664A46294649
:10076000204626604E46FFF769FD80B101280BD078
:10077000F61D26F0070000F1080956E74020E4E7DF
:100780008020D8E70020D6E706F104094DE7284687
:1007900052E7206ABDE8F09F8AA8000070B50646BF
:1007A00000F008F90468054630460A22002100F0EE
:1007B000ADFC2C6070BD0000014A00F0DFBC000001
:1007C0006801002030B505460B462A4613F8014B58
:1007D00012F8010B08B1A042F8D01CB1002802D0D9
:1007E0006D1CF1E7284630BD40EA010310B59B07B8
:1007F0000FD1042A0DD310C808C9121F9C42F8D08B
:1008000020BA19BA884201D9012010BD4FF0FF303B
:1008100010BD1AB1D30703D0521C07E0002010BD51
:1008200010F8013B11F8014B1B1B07D110F8013BDD
:1008300011F8014B1B1B01D1921EF1D1184610BDBE
:1008400010B5431C02E010F8011B71B18107FAD109
:100850004FF0013202C88C1A8C4314EAC211F9D04D
:10086000C01A0A0603D0C01E10BDC01A10BD0A046B
:1008700001D0801E10BD0902FCD0401E10BD032A0D
:1008800040F2308010F0030C00F0158011F8013BAD
:10089000BCF1020F624498BF11F801CB00F8013B94
:1008A00038BF11F8013BA2F1040298BF00F801CB58
:1008B00038BF00F8013B11F0030300F08184083ACF
:1008C000C0F0088051F8043B083A51F804CBA0E886
:1008D0000810F5E7121D5CBF51F8043B40F8043BDB
:1008E000AFF30080D20724BF11F8013B11F801CB10
:1008F00048BF11F8012B24BF00F8013B00F801CBE1
:1009000048BF00F8012B704702F0FF0343EA0322BF
:1009100042EA024200F002B84FF000020429C0F09F
:10092000128010F0030C00F01B80CCF1040CBCF121
:10093000020F18BF00F8012BA8BF20F8022BA1EB73
:100940000C0100F00DB85FEAC17C24BF00F8012B58
:1009500000F8012B48BF00F8012B70474FF0000250
:1009600000B5134694469646203922BFA0E80C50A5
:10097000A0E80C50B1F12001BFF4F7AF090728BF80
:10098000A0E80C5048BF0CC05DF804EB890028BFFC
:1009900040F8042B08BF704748BF20F8022B11F025
:1009A000804F18BF00F8012B7047704770477047A1
:1009B0007047000000487047B44B012009684A05A1
:1009C00001D540B27047C905FCD500B2704709682F
:1009D0004A0501D5C0B27047C905FCD580B2704741
:1009E0002DE9F0470D4699469246044600F1240849
:1009F0000168880604D5E06921F01001216000E05B
:100A00000120A84201DD471B00E00027A1697A19F7
:100A100002EB0900081AA0612078C00602D4204623
:100A2000FFF722FD002608E0D4E901211AF80600AC
:100A30009047206A401C761C20624E45F4DB2078EB
:100A4000C0060AD52046FFF70FFD06E0D4E90121D4
:100A500030209047206A401C2062381EA7F1010711
:100A6000F4DC07E0D4E9012118F805009047206A7A
:100A7000401C2062281EA5F10105F3DC2046FFF78B
:100A800009FD2078000602D50220BDE8F08701208C
:100A9000FBE711680268006A530501D508700AE097
:100AA000D30501D5088006E0130603D5C217C1E9B6
:100AB000000200E008600120704770472DE9FF4FF9
:100AC0000C461E464FF0FF378BB0D2E90001DDF82F
:100AD00060800A908A46C1F30A5505B93D46002157
:100AE00008464FF00000BAF1000F00F4400005DAAC
:100AF00000EB80004FF4400101EA50004FEA9059AA
:100B0000B9F1010F00DDB9460A9850EA4A000ED04B
:100B100044F61050A5F2FF3545432F14B8F1000FED
:100B20001ED07542291E1EDDC9F100021CE0B8F17D
:100B3000010F4FF0000001D0302103E0F24305E047
:100B40002154401CB042FBDB3046002200212154DE
:100B50000B99C1F80880C1E900200FB0BDE8F08F03
:100B6000BD1B6D1CDEE74A4600DA694206A800F0AC
:100B700055FC06AB93E8070003AB83E8070050463B
:100B80000A9900F07BFD8DE80700A0F500501F38A2
:100B900000900398002D0ADD42F21F014A460844E6
:100BA000002303A90390684600F0E4FF09E0A0F5E4
:100BB00000504A461F38002303A90390684600F0FE
:100BC000EEFF8DE807000004000C03D04FF0FF306B
:100BD000410800E01046B8F1000F03D00022009257
:100BE00015461EE0751E05D400F02CFB3032625510
:100BF0006D1EF9D5B3460122084302D000227F1CA6
:100C000004E02078302801D100227F1E002A0997B5
:100C100084D01DE0112D07DA00F014FB303262554C
:100C20006D1C50EA0102F5D1084302D00098C8B10A
:100C30000EE00021681E05E0235C625C63542254D0
:100C4000401E491C8142F7DBAB46A81B401E0990A1
:100C5000002004F80B000B98099AC0F80880C0E93E
:100C6000002B7AE711264FF0000857E72DE9F04FE7
:100C700088460446D21D22F0070191B0D1E9000157
:100C8000CDE90A0102F098FB02460B98C00F01D093
:100C90002D2007E02068810701D52B2002E02021CC
:100CA00001EAC000032A099001D0072A05DB0346A8
:100CB0004146204600F00CFB0BE12078800601D570
:100CC000E06900E00620B8F1650F814606D0B8F172
:100CD000660F18D0B8F1670F70D131E00020B9F17C
:100CE000110F009001DB112301E009F101030AAAB1
:100CF00001A90CA8FFF7E2FEDDE90C70002609F15E
:100D00000105834647E001204B4600904FF0004725
:100D10000AAA01A90CA8FFF7D1FEDDE90DB00C99D4
:100D20005D46002610B909F101000D18B9EB050068
:100D300003D4C0F1FF3609F10105A5EB09002BE052
:100D4000B9F1010F01DA4FF001090020B9F1110FDB
:100D50000090484601DD112300E003460AAA01A9DC
:100D60000CA8FFF7ABFEDDE90C704D46002683466C
:100D7000207800070AD4AB4500DA5D4601A8012DB2
:100D800004DD411911F8011C302907D04F4502DA62
:100D900017F1040F04DA012082460FE06D1EEEE722
:100DA000002F02DCED1B3E4403E0781CA84200DD6E
:100DB0007D1CB81B00F1010A4FF0004720780007A6
:100DC00003D4AA4501DB4FF0FF3A0021B7F1004FF1
:100DD0000DF143088DF8431024D002202B23002F5F
:100DE00001DA7F422D230A21021EA0F1010000DC5E
:100DF0005FB197FBF1FC97FBF1F201FB1C7C1746FE
:100E00000CF1300C08F801CDEEE7A8F101000370F9
:100E10002188090501D5452100E06521A0F10108DF
:100E200000F8011C09980FA9A1EB0807FF1D00B1EC
:100E30000120411901EBEA70A1693844081A401EEB
:100E4000A0612078C00602D42046FFF70DFB099868
:100E500028B1D4E901219047206A401C2062207803
:100E6000C00622D52046FFF7FFFA1EE0002E04DB65
:100E7000B34502DD01A8805D00E03020D4E9012106
:100E80009047206A401C2062761CAAF101005FEAAC
:100E9000000A0AD100F0D2F9C0680168405CD4E9C8
:100EA00001219047206A401C2062281EA5F10105FF
:100EB000DCDC07E0D4E9012118F8010B9047206A37
:100EC000401C2062381EA7F10107F3DC2046FFF723
:100ED000E1FA032011B041E601694A1C0261087879
:100EE000704700B58FB0CDE901310021059105496A
:100EF0007944CDE9031011466846FFF78BFB0FB02C
:100F000000BD0000E5FFFFFF0A6802F8010B0A6060
:100F1000704710B5436913B1AFF3008001E0FFF7EC
:100F2000CAFA012010BD127800F124010A700022D3
:100F30004A700122EDE711684FF0FF32E9E7000047
:100F4000074B70B50D467B44FFF7CBFF04462846A0
:100F500000F0D6FA10B14FF0FF3070BD204670BDE2
:100F6000FF5200002DE9FF5F15468A460446DFF870
:100F7000AC80F8440027D8E900103E46CDE90010C7
:100F800010E03AF816106A4602A800F0BDFA411CBB
:100F900007D02178890603D5E269391891420DD826
:100FA0000744761C2078800602D5E069B84205DD4A
:100FB000AE42E6DB3AF816000028E2D1A069C01B79
:100FC000A0612046FFF750FAD8E90010CDE90010E3
:100FD000002017E03AF818106A4602A800F094FAC8
:100FE000B0F1FF3F81460BD000250DF1080B05E065
:100FF000D4E901211BF8050090476D1C4D45F7D33E
:1010000008F10100B0428046E4DB206A38442062E7
:101010002046FFF73FFABDE8FF9F00004E9F00000B
:101020002DE9F0418046D21D22F007020025D2E9C9
:101030000002F52915A614D0011E72F1000106DA8E
:101040000023D0EB030063EB020211A608E0D8F8FE
:1010500000108B0701D50FA602E0490701D50EA6A7
:1010600001251146002408F1240704E000F0EAF805
:1010700030323A55641C50EA0102F7D12B46324611
:1010800021464046BDE8F041FFF7AABC0000000041
:101090002D0000002B0000002000000030B40021D3
:1010A00000F1240408E002F00705D208303542EAD6
:1010B0004372DB086554491C52EA0305F3D1046806
:1010C000002310A2250707D5A40600D421B1C469C6
:1010D00001230DA2641EC46130BCFFF781BC10B5B2
:1010E000044621461068FFF772FC02462046BDE820
:1010F00010400023D2E7D21D22F00701D1E90023DE
:10110000CCE7000000000000300000002DE9F047AF
:1011100091460F4680460446002614F8015B2DB127
:1011200000F084F80068405DC007F6D12B2D02D096
:101130002D2D18D0641E4A463946204600F01EF96F
:1011400027B13968A14201D1C7F800804FF00204ED
:1011500071050BD54042002803DDFFF72BFC04602E
:10116000A007BDE8F08746F48066E4E70028F8DAD7
:10117000FFF720FC04606FF00040F2E72DE9F0413A
:1011800015460E46040002D12C6804B90BA4204673
:1011900000F0EAF90444207870B127463146384619
:1011A00000F0D2F90444207810B1002004F8010BBB
:1011B00038462C60BDE8F0810027F9E70000000008
:1011C00010B5203AC0F00B80B1E81850203AA0E8E2
:1011D0001850B1E81850A0E81850BFF4F5AF5FEA16
:1011E000027C24BFB1E81850A0E8185044BF18C9C9
:1011F00018C0BDE810405FEA827C24BF51F8043B70
:1012000040F8043B08BF7047D20728BF31F8023BC3
:1012100048BF11F8012B28BF20F8023B48BF00F857
:10122000012B704700487047B44B012010B500F007
:1012300005F8001D10BD00BF6D9300000048704709
:10124000D44B012030B5B0F10A024FEA900E71F193
:1012500000034EEA817EB0EB0E0061EB91014FEA94
:10126000101E4EEA017E10EB0E0041EB11114FEA09
:10127000102E4EEA016E10EB0E0041EB11214FEAE9
:10128000104E4EEA014E10EB0E0041EB114140189A
:1012900041F100014FEAD00040EA41704FEAD1012C
:1012A00010EB80054FEA810444EA907444EB01049A
:1012B0006D1944EB0404521BA3414FF0000348BFD7
:1012C0000A3200D530BD401C41F1000130BD0000A4
:1012D0002DE9F0411F46044603260168072A01F460
:1012E000006004DB08B116A505E016A503E008B10F
:1012F00015A500E015A521F010002060A069C01E12
:10130000A0610FB1401EA0612046FFF7ADF84FB1BC
:10131000D4E9012138469047206A401C2062C01C55
:10132000206206E0206AFAE7D4E9012115F8010BF2
:101330009047761EF8D22046FFF7ACF8BDE8F08162
:101340004E414E006E616E00494E4600696E660069
:1013500010B5436913B1AFF3008001E0FFF702FE5F
:10136000012010BD128800F1240182840022C28471
:101370000122EDE711684FF0FF32E9E72DE9F05F58
:10138000824615468B4600270AF10104B9460078CB
:10139000302801D09DB113E014F8010B0127782803
:1013A00003D0582801D045B10AE00DB1102D07D166
:1013B000002714F8010B102502E0082500E00A259B
:1013C0000026B0460EE005FB080005FB06F10127EC
:1013D0001FFA80F801EB1046B6F5803F00D3B946FE
:1013E00014F8010B294600F0F2F80028EBDABBF103
:1013F000000F05D00FB1641E00E05446CBF800404A
:10140000B9F1000F06D0FFF7D5FA02210160C81E1E
:10141000BDE8F09F48EA0640FAE700002DE9F047F2
:10142000814616468AB0354878440DC88DE80D00CF
:1014300032487844801C03AC0DC884E80D0041F6A6
:101440009B300844372190FBF1F290FBF1F5A5F1B8
:10145000800501FB12041B3C02D56442012000E020
:101460000020DFF898A080460027FA44AAF1BE0ABF
:101470000EE0E0070AD03246684607EB4701012339
:101480000AEB810100F08BFB8DE8070064107F1CE4
:10149000002CEED1194F7F44AE3F19E0E80715D07C
:1014A00007EB04100DF1180A90E80E008AE80E0010
:1014B000C068F04201D1981908903246012306A96C
:1014C00003A800F06CFB03AB83E807006D10641CFD
:1014D000002DE3D14FF0010332466946B8F1000F09
:1014E00003A802D000F046FB01E000F058FBC9E978
:1014F0000001C9F808200AB0BDE8F0871C9B000075
:10150000007B00F08000704770B516460C4605461B
:10151000FFF78CFE036893F80101012806D0FF2C29
:101520000FD8185D68B101202C7070BDD3F8070189
:101530003246214603F2071303442846BDE87040B3
:1015400018474FF0FF3070BD30B503461D781DB110
:101550000A4603E0AC4201D1181A30BD12F8014B23
:10156000002CF7D15B1CF1E730B503461D783DB187
:101570000A4612F8014B1CB1AC42FAD15B1CF5E7EC
:10158000181A30BD7546FFF74DFEAE460500694698
:10159000534620F00700854618B020B5FEF728FF17
:1015A000BDE820404FF000064FF000074FF0000864
:1015B0004FF0000B21F00701AC46ACE8C009ACE8E5
:1015C000C009ACE8C009ACE8C0098D4670473A28AC
:1015D00000D2303820F02002412A01D3A2F1370096
:1015E000884201D34FF0FF30704710B50446AFF387
:1015F00000802046BDE81040FEF785BE4FF0013C5C
:1016000050F8042B51F8043B9A4221D1A2EB0C0371
:10161000934313EACC1317D150F8042B51F8043B31
:101620009A4215D1A2EB0C03934313EACC130BD1CE
:1016300050F8042B51F8043B9A4209D1A2EB0C0359
:10164000934313EACC13DBD04FF00000704700BF88
:10165000D01A01BAB1FA81F101F0180122FA01F0B1
:10166000CB40C1F12001DBB2C0B2C01A2CFA01F3A9
:10167000D11A914311EAC311E6D170475FEA400CD9
:1016800008BF91F0000F4FEA8C234FEAC12243EAD2
:1016900051514FEA1C5018BF00F5F0404FEA30009E
:1016A00018BF41F000415FEA6C5C00F02980BCF19A
:1016B000FF3F08BF40F080407047130C06BF120484
:1016C0004FF0100C4FF0000C130E04BF12020CF17F
:1016D000080C130F04BF12010CF1040C930F04BF8C
:1016E00092000CF1020CD30F04BF52000CF1010C5C
:1016F00011464FF00002A0F11F00A0EB0C00704754
:1017000011F0004F08BF704731F000413FF4D5AFF2
:101710000B0C06BF09044FF0100C4FF0000C0B0E21
:1017200004BF09020CF1080C0B0F04BF09010CF1F6
:10173000040C8B0F04BF89000CF1020CCB0F04BF0B
:1017400049000CF1010CCCF12003A0EB0C0022FAB3
:1017500003F302FA0CF241EA030100F101007047C1
:1017600020F07F4C80EA030023F07F47ACEB0703B7
:1017700003F57C5300F0004003F1FF032DE980499D
:101780004FEA154B09B44FEA144325EA0B4E24EAFD
:1017900003480FF2042606EB132749083E785FEA58
:1017A000320203FB0667C7F5000707FB06F64FEAA0
:1017B00054374FEAD64606F1020607FB066CCCF119
:1017C000005C4FEA1C472CEA074C07FB06F40CFBB5
:1017D00006F504EB15464FEA961634BF00204FF08D
:1017E00000404FEAD13706FB07FC4FEA1C4C0CFBCC
:1017F0000BF7D21B03FB0CF761EB07010CFB0EF799
:10180000B0EB074072EB17420CFB08F734BFA2EBBA
:101810000742B2EB074261EB17414FEA0C444FEA33
:10182000910706FB07FC4FEA1C4C0CFB0BF7B0EBD7
:10183000C74072EB573203FB0CF734BFA2EBC74231
:10184000B2EBC74261EB57310CFB0EF7B0EBC700B0
:1018500072EB57720CFB08F734BFA2EBC702B2EB76
:10186000C70261EB5771039F4FEA816141EA921110
:1018700004EBCC044FEAD1374FEA826206FB07FC47
:1018800042EA90124FEA80604FEA1C4C0CFB0BF7C7
:10189000D21B03FB0CF761EB07010CFB0EF7B0EB5F
:1018A000074072EB17420CFB08F734BFA2EB07426C
:1018B000B2EB074261EB17414FEA8C554FEA9107B3
:1018C00004EB9C2406FB07FC4FEA1C4C0CFB0BF7BB
:1018D000B0EBC74072EB573203FB0CF734BFA2EBFF
:1018E000C742B2EBC74261EB57310CFB0EF7B0EBCE
:1018F000C70072EB57720CFB08F734BFA2EBC702AC
:10190000B2EBC70261EB577115EB4C254FEA8161D1
:1019100041EA92114FEA82624FEAD13742EA9012CD
:1019200006FB07FC44F100044FEA80604FEA1C4CC0
:101930000CFB0BF7D21B03FB0CF761EB07010CFB55
:101940000EF7B0EB074072EB17420CFB08F734BF01
:10195000A2EB0742B2EB074261EB174115EB1C15F6
:101960004FEA813141EA92414FEA823242EA9042A3
:101970004FEA80304FEA0C7644F1000448EA034312
:101980004EEA0B484FF0000EB2EB080C71EB030768
:1019900024BF624639464EEB0E0E4FF0000B001886
:1019A000524149414BEB0B0BB2EB080C71EB0307B7
:1019B0007BF1000B24BF624639464EEB0E0E4FF012
:1019C000000B0018524149414BEB0B0BB2EB080CDA
:1019D00071EB03077BF1000B24BF624639464EEBE7
:1019E0000E0E51EA020718BF46F0010616EB0E76FE
:1019F00055F1000254F1000103D5BDE88901BDE8AD
:101A00000088BDE88901BDE80048B619524141EBA4
:101A10000101A3F10103704780807F7E7D7C7B7A8A
:101A20007978777676757473727171706F6E6E6D8A
:101A30006C6C6B6A6A696868676666656464636330
:101A400062616160605F5F5E5E5D5D5C5C5B5B5AB6
:101A50005A59595858575756565555555454535323
:101A600052525251515050504F4F4F4E4E4D4D4D7E
:101A70004C4C4C4B4B4B4A4A4A49494948484847C9
:101A80004747474646464545454444444443434307
:101A90004342424242414141002B9C4630D47700B0
:101AA0002BD01CB54FEA370703B44FF010004FF0AE
:101AB0001001BAF1000F06D0BCF1000FDCBF40F0FE
:101AC000080040F008014FF000000FBCBDE81040D6
:101AD0000BF1010BBBF1010F08BF5FEA170722BF33
:101AE00012F1010211F101014FF0004143F1000335
:101AF00000F0004043EA00007047F9D35708D0E7F0
:101B000046EA064613F1400F4FEA16461FDD13F171
:101B1000200FDFBF16430A46002120335B42BED0B0
:101B2000C3F1200746EA064602FA07F74FEA1646CF
:101B300046EA0706C3F1200722FA03F201FA07F783
:101B400021FA03F14FF0000342EA0702A7E746EA51
:101B5000020646EA06464FEA164646EA0106BCBFBA
:101B600046EA0646360C4FF000034FF000024FF0F5
:101B7000000194E72DE9804C9A46934670B491E8B1
:101B8000380007C831EA400C48BF34EA430C03D59B
:101B9000FFF7E6FDFFF780FFF0BCBDE8008C2DE904
:101BA000804C9A46934670B491E8380007C810F00C
:101BB000804F08BF13F0804F03D100F005F8FFF706
:101BC0006BFFF0BCBDE8008C20F07F4780EA03008B
:101BD00023F07F4C07EB0C03A3F57C5300F000408F
:101BE000A3F1FE0392F0000F00F0B38095F0000F18
:101BF00000F077802DE901494FEA11404FEA144681
:101C000021EA004800FB06FC24EA064708FB06F62A
:101C100007FB08F800FB07F718EB06484CEB164CDF
:101C20004FEA124B18EB07484FEA15464CEB1740AA
:101C300022EA0B4E0BFB06FC25EA06470EFB06F6D6
:101C400007FB0EFE0BFB07F71EEB064E4CEB164C8C
:101C50004FF000061EEB074E4CEB174B18EB0B0832
:101C600040F1000018EB0E0B58EB000840F10000AB
:101C70008F1A4FF000013CBFC943661B14BFB5EB80
:101C8000040C00213CBFC943F61B4FEA17444EEA3F
:101C90008E0E27EA04454FEA1C4704FB07622CEA34
:101CA000074C05FB07F70CFB05F604FB0CFC16EBD9
:101CB000074642EB174216EB0C4642EB1C421BEB6D
:101CC000060658EB0202414146EA9E0601D5BDE8F0
:101CD0000189B619524141EB0101A3F10103BDE8AD
:101CE00001894FEA14454FEA114724EA054621EAE3
:101CF000074C05FB07F406FB07F70CFB06F105FB99
:101D00000CFC11EB074144EB17444FEA124711EB6F
:101D10000C4144EB1C4422EA074C05FB07F206FB8E
:101D200007F70CFB06F605FB0CFC16EB074642EB2F
:101D3000174216EB0C4642EB1C456A1854F10001A1
:101D400048BF7047B619524141EB0101A3F10103AD
:101D5000704795F0000F37D04FEA11424FEA144711
:101D600021EA024624EA074C02FB07F106FB07F7CB
:101D70000CFB06F402FB0CFC14EB074441EB17418F
:101D80004FEA154714EB0C4441EB1C4125EA074C84
:101D900002FB07F506FB07F70CFB06F602FB0CFC43
:101DA00016EB074645EB174516EB0C4645EB1C4278
:101DB000121951F1000148BF7047B619524141EB69
:101DC0000101A3F1010370474FEA14454FEA11479F
:101DD00024EA054621EA074C05FB07F106FB07F755
:101DE0000CFB06F24FF0000605FB0CFC12EB074261
:101DF00041EB174112EB0C4251EB1C4148BF7047BD
:101E0000921841EB0101A3F10103704710B51420B2
:101E100000F0A4FF800705D10321BDE81040142085
:101E200001F06AB810BDFEE72DE9F0410E46074605
:101E300015460421052000F02FF880210A2001F02A
:101E40005BF80021012001F0A1FA002405E0395DD2
:101E5000092001F09BFA641CA4B2B442F7D3032119
:101E6000012001F093FA4FF47A74052000F076FF18
:101E7000641E2404240C01D04007F6D5222000F073
:101E80006DFF2870212000F069FF6870BDE8F04107
:101E90000021012001F07ABA70B50C46054600F029
:101EA0005DFF20EA04012846BDE8704001F06EBAEB
:101EB0007047000010B55020EFF3118480F31188B3
:101EC000BFF34F8FBFF36F8F012000F071F801282F
:101ED00008D1064800220121006807F00FFA01200E
:101EE00000F060F884F3118810BD0000200000208D
:101EF00010B55020EFF3118480F31188BFF34F8F9A
:101F0000BFF36F8F042000F053F8012808D1064872
:101F100000220221006807F0F1F9042000F042F8E5
:101F200084F3118810BD00002000002010B550205F
:101F3000EFF3118480F31188BFF34F8FBFF36F8FDE
:101F4000082000F035F8012808D1064800220421B5
:101F5000006807F0D3F9082000F024F884F3118812
:101F600010BD00002000002010B55020EFF31184B8
:101F700080F31188BFF34F8FBFF36F8F102000F0F5
:101F800017F8012808D1064800220821006807F048
:101F9000B5F9102000F006F884F3118810BD000098
:101FA000200000200149086070470000143C0140F7
:101FB000034A0146002012680A4200D001207047FF
:101FC000143C014030B51A4A8379016853B3136851
:101FD0008B431360111D0B680468A3430B600179E8
:101FE00011440B68046823430B60114B08331968D4
:101FF0000468A14319601C1D21680568A94321607C
:102000004179102905D011440A68006802430A602A
:1020100030BD1968026811431960216800680143E6
:10202000216030BD0079104402688A43026030BDEF
:10203000003C014070B50646002529B1012927D092
:10204000022928D04FF4407500F080F809281ED1ED
:10205000124C206820F440702060206828432060E3
:10206000206820F0F8002060206846F00201084354
:102070002060206840F48030206000F067F821681C
:1020800021F002012160216821F0F801216070BD7A
:102090004FF48075D8E74FF40075D5E7103C024047
:1020A0000D4909200A68D20301D5012070470A684A
:1020B000D20601D5062070470A68D20501D5022054
:1020C00070470A6812F0EF0F01D0072070470968C7
:1020D0008907FBD5082070470C3C02400248016884
:1020E00041F0004101607047103C024070B50D4660
:1020F000064600F02BF8092813D10A4C206820F47A
:1021000040702060206840F400702060206840F03B
:1021100001002060356000F019F8216821F001010C
:10212000216070BD103C024005480068002805DAB7
:10213000034804490C3801600349016070470000FE
:10214000103C024023016745AB89EFCD08B509205B
:102150008DF80000FFF7A4FF8DF800009DF8000047
:102160000128F7D09DF8000008BDF0B50022012736
:102170004FF0030C0B6807FA02F52B40AB422CD151
:10218000066853000CFA03F4A64306600E79D0F8F3
:1021900000E09E4046EA0E0606600E79012E01D050
:1021A000022E12D18668A64386604E79D0F808E0E8
:1021B0009E4046EA0E0686604668AE434660456825
:1021C0008E799640B6B235434560C568A543C56073
:1021D000CC799C40C3681C43C460521C102AC9D3EC
:1021E000F0BD4B07DB0E9A40C90810B500EB81002B
:1021F000016A0F249C40A1430162016A11430162FC
:1022000010BD01837047000000260F4C0F4D4FF0AA
:1022100000780127C4F8A462C4F8A862C5F8B462C3
:10222000C5F8B86241464046401EFDD2C4F8A472CB
:10223000C4F8A872C5F8B472C5F8B872491EFDD2C8
:1022400003A0FEF7EFF8E5E70080424200004242BB
:10225000486172644661756C743A506C656173656F
:1022600020636865636B20636F6465A3AC666F72FF
:10227000206578616D706C6520737461636B2E2EC0
:102280002E0D0A0002494CF6CC4008607047000051
:102290000030004002494AF6AA200860704700005A
:1022A00000300040014948607047000000300040A5
:1022B0000149886070470000003000400149086013
:1022C00070470000003000407CB50546082100241E
:1022D0000846FFF7E1FD80210E20FFF7DDFD00211C
:1022E0000D2001F053F8932028702020687001A879
:1022F0002B460090022219460C2000F0E2F806005E
:102300000AD10022A85C521C4440D2B2042AF9D35C
:10231000A85CA04200D0022680210E2000F0ECFD37
:1023200030467CBD30B585B08DF804008DF80510C1
:10233000002001A9145C0D18401CC0B2AC70062826
:10234000F8D300200C181A5C401CC0B2227204287A
:10235000F8D304A800900B460C220E2000F0B1F830
:10236000040004D1082000F0F9FC000700D4022486
:1023700005B0204630BD10B500F054FD00F050F817
:102380008D212A2001F002F83E212B2000F0FEFFD3
:1023900032212D2000F0FAFF00212C2000F0F6FF62
:1023A0004021152000F0F2FF3D21112000F0EEFF4A
:1023B0000021012000F0EAFFBDE81040FFF726BD34
:1023C0001CB50C46302121706070A21C02212046F1
:1023D000FFF72AFD01A823460090042219460C208D
:1023E00000F06FF818B9BDF80410902900D0022051
:1023F0001CBD7CB50C46054607210D2000F0C6FF2C
:10240000257001A823460090012219460C2000F0F7
:1024100058F818B9BDF80410102900D002207CBD6E
:1024200070B50C4C0125C4F8A052284604F5287458
:1024300003F0DCF900202060284603F0D7F925607E
:10244000284603F0D3F9BDE870400F21012000F0C9
:102450009DBF00000000424210B586B093218DF868
:10246000041070218DF8051000218DF80A1001AAC2
:102470005418435CA370445C9DF80A30491C6340C7
:10248000C9B28DF80A300429F2D3072101A8D21D60
:10249000FFF7CAFC08210846FFF7FEFC04A801ABC1
:1024A0000090092219460C2000F00BF818B9BDF86D
:1024B0001000182802D0002006B010BD9DF80400BE
:1024C000FAE72DE9FF5F0025DDF838B017468A46A8
:1024D00080464FF002092E460C2805D0B8F10E0FA9
:1024E00004D11225102601E07725302645F0800121
:1024F000022000F04BFF80210420FFF7CDFC80215B
:102500000A2000F0F9FC0021012000F03FFF002428
:1025100006E01AF80410092000F038FF641CA4B289
:10252000BC42F6D34146012000F030FFB8F10C0F59
:1025300003D180210D2000F0DFFC42F21074042052
:1025400000F00CFC641E24040746240C03D0F8079A
:1025500001D13742F3D080210D20FFF79DFC8CB3D1
:10256000062000F0FBFB10F01B0F01D0022028E03A
:10257000B8F10C0F24D10A2000F0F0FB05460C2026
:1025800000F0ECFB10F007004FEAC50104D0083959
:102590000844ABF8000001E0ABF8001025B1122DA3
:1025A00000D91225002409E00125FBE7092000F0ED
:1025B000D5FB014603980155641CA4B2AC42F5D387
:1025C0000020814680210C2000F0E0FE0021012047
:1025D00000F0DCFE04B04846BDE8F09F70B588B05E
:1025E0000C46A0218DF8041001AD8DF805000221E4
:1025F0002846AA1CFFF718FC06AE01AB04221946B8
:102600000C200096FFF75DFF38BBBDF818000428CA
:1026100023D19DF8040000F00F000A281DD10020EE
:10262000215C2954401CC0B21028F9D305AA1021FE
:1026300001A8FFF7F9FB01AB122219460C20009606
:10264000FFF73FFF48B9BDF81810042905D19DF8E0
:10265000041001F00F010A2900D0022008B070BD5B
:10266000FEE7704700F01F02012191404009800001
:1026700000F1E020C0F88011704700F01F02012136
:1026800091404009800000F1E020C0F8001170473F
:1026900030B50F23C27801780125FAB1144A1268C7
:1026A00001F1E02102F4E062C2F5E062C2F3072228
:1026B000C2F10404D3404278A24084781C40144301
:1026C000220181F80024007800F01F018D404009AC
:1026D000800000F1E020C0F8005130BD01F01F0083
:1026E00085404809800000F1E020C0F8805130BDED
:1026F0000CED00E002490843024908607047000001
:102700000000FA050CED00E0014908627047000086
:1027100000000E422DE9F0470026124F81460724A3
:102720004FF0010AB0460AFA04F5504615EA090FBF
:1027300002D0C7F8BC0201E0C7F8BC82C7F8940217
:10274000012003F053F8D7F8040208B13543EEB284
:10275000C7F89482012003F049F8641EE3D530469F
:10276000BDE8F08700804142044A0029116801D089
:10277000014300E08143116070470000303802409F
:10278000044A0029116801D0014300E0814311602F
:102790007047000040380240044A0029116801D007
:1027A000014300E08143116070470000443802405B
:1027B00070B5204B1968204C11F00C0104D0661044
:1027C000042903D0082903D004601BE0066019E047
:1027D000184A121F1168C1F38055116801F03F01BA
:1027E00015B1B6FBF1F101E0B4FBF1F11468126828
:1027F000C4F388146143C2F30142521C5200B1FB7E
:10280000F2F1016019680F2202EA11110B4A545CBF
:102810000168E14041601C68072505EA9424145DC5
:1028200021FA04F484601B6805EA5333D25CD1407A
:10283000C16070BD083802400024F400E4000020AC
:1028400002460020510901290BD002290CD0084969
:10285000096802F01F02012393400B4200D00120BF
:10286000704703497439F3E70149091FF0E7000095
:10287000743802400149086070470000800E4742EA
:1028800001490860704700003C0E4742C0F3012137
:10289000032907D1074B1968074A21F4F8110240B0
:1028A0000A431A60034968310A68C0F30B00024307
:1028B0000A60704708380240FFFCFF0F010901EB76
:1028C000810100F00F0000EB4100C0B27047002111
:1028D00003E0491C0A38C9B2C0B20A28F9D2090774
:1028E00040EA11607047000080B240F08000C143B0
:1028F0000348026802F08002114301607047000043
:102900000C280040C0F30F1040F08000C143034882
:10291000026802F080021143016070470C280040F9
:1029200008B50D49002000900868400612D44FF009
:10293000FF3008608B130868009A00F04000521CBA
:1029400000929A4201D00028F5D00868400601D4D0
:10295000002008BD012008BD0C2800400248016885
:1029600021F08001016070470C280040020010B582
:102970000F480C4601680F4801EA00014FEA114078
:10298000E070C1F30423637001F03F03A370C1F34F
:10299000423121700AD1FFF791FFE0706078FFF7B4
:1029A0008DFF6070A078FFF789FFA07010BD000058
:1029B000042800403FFFFF000B4A0021126802F08C
:1029C0000403094A383A126803EAD03302401A4332
:1029D000064B1B6803EA101003D00004000C00D063
:1029E0000121084670470000402800400C280040A4
:1029F000020010B510480C460168104801EA0001B9
:102A0000C1F305402070C1F30623637001F07F031A
:102A1000A3704FF0400303EA1141E1700AD1FFF7C0
:102A20004DFF20706078FFF749FF6070A078FFF7D6
:102A300045FFA07010BD0000002800407F7F7F0090
:102A400030B50E4DCA222A6053222A600B4C0B4B24
:102A50001C3C1C33002920F00402216800F0040013
:102A600004D0114321601968014303E091432160C0
:102A7000196881431960FF20286030BD2428004078
:102A800070B5124D04460026CA20286053202860E5
:102A9000FFF746FFA8B10D481C38016821F040013E
:102AA000016001682268114301600848A168143878
:102AB00001600168A28841EA02410160FFF74EFF10
:102AC0000126FF202860304670BD00002428004009
:102AD00008B5034901EB80000090006808BD0000C4
:102AE0005028004070B50C460026010060780FD0D9
:102AF000FFF7E4FEA078FFF7E1FEA078E17840EA76
:102B0000014560782178000240EA4130054315E034
:102B1000C10603D520F010000A306070E078FFF79E
:102B2000D6FE05046078FFF7D2FE45EA0025A078BE
:102B3000FFF7CDFE0543207845EA40350D4CCA200D
:102B4000206053202060FFF7EBFE78B10A48054073
:102B5000084820380560FFF701FF06481C38006868
:102B6000800602D400F08AF800B10126FF20206020
:102B7000304670BD242800403FFFFF002DE9F041A2
:102B80000C460026234F01002078396832464FEA70
:102B9000416104D0002930DAFFF790FE2EE00029D1
:102BA00000DBE270FFF793FE05046078FFF78FFE0D
:102BB00045EA0025A078FFF78AFE0543E07845EA5C
:102BC0000045144CCA201C34206053202060FFF7BD
:102BD000A7FE68B1104805400E4808380560FFF7A9
:102BE000BDFE3868800602D400F048F800B1012626
:102BF000FF2020603046BDE8F081E270A0782178A7
:102C000040EA01456078E178000240EA014005436E
:102C1000D7E70000082800407F7F7F000549CA22CF
:102C20000A6053220A60034A103A1060FF200860CD
:102C3000704700002428004070B55020EFF3118445
:102C400080F31188BFF34F8FBFF36F8F4FF4804530
:102C50002846FFF7B1FE01280BD1074800221021BA
:102C6000006806F04BFB2846FFF74CFE2802FFF7F2
:102C700099F984F3118870BD2000002018B5002058
:102C8000104B0090CA201860532018600D49183965
:102C9000086820F0A00008604FF400340868009A2B
:102CA00000F02000521C0092A24201D00028F5D072
:102CB0000868800601D5012000E00020FF2119608E
:102CC00018BD000024280040084ACA211160532181
:102CD000116006491C390B6823F007030B600B6871
:102CE00003430B60FF201060704700002428004061
:102CF00018B50021134B0091CA21196053211960A6
:102D000010491C390028086803D040F4806008602E
:102D100014E020F4806008600A4918398C130868B0
:102D2000009A00F00400521C0092A24201D0002838
:102D3000F5D00868400701D4002000E00120FF2101
:102D4000196018BD2428004008B5034A02EB800032
:102D50000090016008BD00005028004010B5094CEB
:102D60000021C4F8B0127E2101EA400040F080004A
:102D700004F52C74FFF7CEFC00F020F8012121604F
:102D800010BD00000000434270B50B4C0546022107
:102D9000204600F020F80028F9D02946204600F00F
:102DA00023F80121204600F016F80028F9D020462B
:102DB00000F018F8C0B270BD003001400020FFF7ED
:102DC000A9BC0029018802D041F0400101E021F0B6
:102DD0004001018070470246002012890A4200D05B
:102DE00001207047808970478181704730B5028823
:102DF0004C8802F441530A88CD8822438C882C43A6
:102E000022430C8922434C8922438C892243CC895A
:102E100022431A430280828B22F400628283098A51
:102E2000018230BD2DE9F04101210820FFF79CFC13
:102E300001211020FFF798FC01214020FFF794FCAE
:102E40001B4C48F220000126206026710025A57148
:102E50000227DFF860806771E57121464046FFF781
:102E600084F9300220602671A5716771E5712146F1
:102E70001148FFF77AF9300320602671A571677158
:102E8000E57121460D48FFF770F927602571A5719E
:102E90006771E57121464046FFF767F90848C0F8B9
:102EA000B0620848C0F89452C0F8BC62BDE8F08136
:102EB000BC000020000C024000100240001802403C
:102EC000000043420080414210B58A0721F003040C
:102ED0000849120F21440F23D1F8084893409C431E
:102EE000C1F80848D1F8083890400343C1F80838C1
:102EF00010BD00000030014070B50C460546FFF7DC
:102F00002DFF40EA04012846BDE8704000F03EBABB
:102F10000CB50022274900920192086840F48030E5
:102F200008604FF4A043086800F400300190009856
:102F3000401C0090019810B900989842F3D108689D
:102F4000800334D5012001901A484030026842F0D5
:102F5000805202601848026842F4404202601548FC
:102F6000083002680260026842F4004202600268AF
:102F700042F4A0520260031F104A1A600A6842F02D
:102F800080720A600A689201FCD50D4940F2057210
:102F90000A60016821F003010160016841F002014B
:102FA00001600168C1F381010229FAD10CBD0192CF
:102FB0000CBD00000038024000700040085440077B
:102FC000003C024010B5502080F31188BFF34F8FB2
:102FD000BFF36F8F06F0CEFF18B104494FF0805059
:102FE0000860002080F3118810BD000004ED00E0AF
:102FF000124810B5016841F4700101601048016881
:1030000041F0010101600E4A00210832116002689E
:103010000C4B1A400260031D0B4A1A60026822F42E
:103020008022026006480C300160FFF771FF0349FF
:103030004FF000608039086010BD000088ED00E0AE
:1030400000380240FFFFF6FE103000242DE9F8435F
:1030500000255020EFF31184009580F31188BFF311
:103060004F8FBFF36F8F1B4F40F2255841463846B4
:1030700000F0F4F8F8B1384600F07EF9174EC1B20E
:10308000154A30681154401C3060232901D0402873
:103090000DD382F84000124800236A460E490068AA
:1030A00006F080FC41210C48FDF736FC35604146B6
:1030B000384600F0BCF8009838B10A494FF080500B
:1030C0000860BFF34F8FBFF36F8F84F31188BDE8A3
:1030D000F883000000100140271C0020DC000020C5
:1030E0002400002004ED00E070B55020EFF31184BF
:1030F00080F31188BFF34F8FBFF36F8F0F4D40F2F6
:1031000025563146284600F0A9F8A0B1284600F01F
:1031100033F901460A4802680A4B1344521C026004
:1031200019700168B1F5007F01D30121416031467A
:10313000284600F07CF884F3118870BD00440040FC
:10314000B0000020D803002070B55020EFF31184A8
:1031500080F31188BFF34F8FBFF36F8F0F4D40F295
:1031600025563146284600F079F8012812D1284624
:1031700000F002F90A49C0B20A68B2F5FF7F05D82B
:103180000A68084B1344521C0A60187031462846DE
:1031900000F04DF884F3118870BD00000048004035
:1031A000D0000020191800202DE9F0415020EFF345
:1031B000118480F31188BFF34F8FBFF36F8F164ECA
:1031C00040F225573946304600F048F800B3304603
:1031D00000F0D2F8124DC1B2104A28681154401CB8
:1031E0002860232901D040280ED382F840000D48E2
:1031F00000231A460949006806F0D4FB412107481C
:10320000FDF78AFB002028603946304600F00FF8B1
:1032100084F31188BDE8F08100140140D805002036
:10322000B800002028000020C943018070470A0A26
:1032300001219140C943018070470029818902D052
:1032400041F4005101E021F40051818170470246B0
:10325000002012880A4200D00120704770B501F0AA
:103260001F0501260024C1F3421306FA05F2012BC3
:103270000FD0022B0FD0838A4FEA1121008813420E
:1032800006FA01F600EA060001D000B1012420464A
:1032900070BD8389F0E7038AEEE710B5C1F34213EE
:1032A00001F01F040121A140012B07D0022B07D000
:1032B0001430002A026805D00A4304E00C30F8E715
:1032C0001030F6E78A43026010BD00007FB5044667
:1032D000008A0D46C98820F4405001432182A0890C
:1032E00041F20C618843A9882A8911436A89024303
:1032F0001143A181A08A20F44071A8890843A082CB
:103300006846FFF755FA1A48844202D019488442A9
:1033100001D1039800E00298A189090400EBC001E3
:1033200001EB0010296801D5490000E08900B0FBDD
:10333000F1F06422B0FBF2F109010B096FF01805FE
:103340006B4300EB8300A3891D044FF0320306D5C5
:1033500003EBC000B0FBF2F000F0070005E003EB68
:103360000010B0FBF2F000F00F00084320817FBD99
:1033700000100140001401408088C0F3080070472D
:10338000C1F3080181807047FEE7000070B5094C69
:103390000D460021C4F8B0127E2101EA400004F578
:1033A0002C74FFF7B7F92846FFF7B4F90120206025
:1033B00070BD00000000434203B401984100009832
:1033C00050EAC12018BF04204A0D18BF40F0010088
:1033D00040F2FF72B2EB515F08BF40F002000128DB
:1033E00008BF052002B0704730380A2801D20120FA
:1033F000704700207047704700208CB0471E814CFA
:103400000A900B904FF0FF0A4FF0F00B01264FF09F
:10341000640909900097002301224FF46051206A4B
:1034200005F074FF054600055FD506220AA90020B5
:1034300002F0F0F80AA9744803F0C2FC5FEA000841
:1034400013D04FF40071206A05F0EAFE8DF8086091
:103450000023642201A9E06B06F0BEF9182101A83F
:10346000FDF77CFACDE9076915E0CDF824A000232B
:10347000642209A9E06A06F0AFF93946206C06F02B
:10348000E7FB0146012802D060A002F0D7F940F224
:10349000DC50CDE907600023642207A9206B06F009
:1034A0009BF93946606C06F0D3FB0146012802D037
:1034B00056A002F0C3F9CDF824B00023642209A974
:1034C000E06A06F089F93946206C06F0C1FB014636
:1034D000012802D04DA002F0B1F941465BA002F0F4
:1034E000ADF90A214848FDF739FAE80460D506220B
:1034F0000AA9002002F08EF80AA9434803F060FCF4
:103500005FEA000814D04FF40071206A05F088FECD
:1035100002208DF808000023642201A9E06B06F068
:103520005BF9182101A8FDF719FACDE9076915E043
:10353000CDF824A00023642209A9E06A06F04CF922
:103540003946206C06F084FB0146012802D02FA0EA
:1035500002F074F940F2DC50CDE9076000236422E8
:1035600007A9206B06F038F93946606C06F070FB4D
:103570000146012802D025A002F060F9CDF824B060
:103580000023642209A9E06A06F026F93946206C76
:1035900006F05EFB0146012802D01CA002F04EF9A5
:1035A00041462AA002F04AF90A211748FDF7D6F948
:1035B000A80421D5134906224831002002F08AF8D8
:1035C00020B9104928A0483102F038F9CDE907693F
:1035D0000023642207A9206B06F0FEF83946606CD0
:1035E00006F036FB0146012802D008A002F026F9B9
:1035F0000020A064A4F84C004FF4FA7005F07AF8AB
:1036000008E70000000000206C0100205B61707082
:103610005F7461736B5F617432346330325D207844
:1036200053656D6170686F726554616B6520675F8B
:1036300073656D5F62656570206572726F7220637D
:103640006F64652069732025640D0A005B617070EA
:103650005F7461736B5F617432346330325D202557
:1036600064200D0A000000005B6170705F7461737C
:103670006B5F617432346330325D206D6F646966F4
:103680007920737563657373202573200D0A00001C
:103690001CB5134C134D4FF0FF3632466946206B74
:1036A00006F00CFA0128F8D10198002800980ED0F5
:1036B000C5F8A00202E0012005F01CF80198401EA8
:1036C0000190401CF7D1009880F001000090C5F8EF
:1036D000A00200231A461946606C06F07DF8DCE76C
:1036E0000000002000804242A4B000203A4C22900A
:1036F00001AD4FF47A7641F27077239022A802F060
:10370000D3F8010006D035A002F098F8384604F04E
:10371000F1FFF3E79DF88B209DF88A1000EE102A48
:10372000F8EE400AB2EE040A80EE801A00EE901A1B
:10373000F8EE600A71EE200AC4ED040A9DF88900D3
:103740009DF8883000EE900AB8EE601AC1EE000ACB
:1037500000EE103AB8EE400A30EE800A84ED050A19
:10376000009028A002F06AF804208DF804009DF86B
:103770008B309DF88A202CA1681CFCF75FFE00238B
:10378000324601A9606B06F027F80146012802D0F5
:103790002BA002F053F8842101A8FDF7DFF80520E3
:1037A0008DF804009DF889309DF8882030A1681CB0
:1037B000FCF744FE0023324601A9606B06F00CF8CA
:1037C0000146012802D01EA002F038F8842101A889
:1037D000FDF7C4F89AE70000000000205B617070FC
:1037E0005F7461736B5F6468745D20646874313109
:1037F000206572726F7220636F6465203D202564BE
:103800000D0A00005B6170705F7461736B5F6468C8
:10381000745D20543A25642E25642C483A25642E84
:1038200025640D0A0000000070616765302E743257
:103830002E7478743D2225642E256422FFFFFF003C
:103840005B6170705F7461736B5F6468745D207836
:10385000517565756553656E64206572726F72206F
:10386000636F64652069732025640D0A0000000001
:1038700070616765302E74342E7478743D2225642F
:103880002E256422FFFFFF00264C8EB04FF0FF353F
:103890002A4607A9E06B06F011F90128F8D122A009
:1038A00001F0CCFFE068079005A90120FFF75EF862
:1038B00004A90120FFF79CF89DF810009DF8203026
:1038C0009DF812209DF811108DE80F009DF816301C
:1038D0009DF815209DF8171017A001F0AFFF9DF877
:1038E00017008DF821009DF815008DF822009DF835
:1038F00016008DF823009DF810008DF824009DF827
:1039000011008DF825009DF812008DF8260004F0B6
:1039100099FD07A802F07EFC04F0D2FDE068401C8F
:10392000E060B5E700000020776169742067657486
:1039300020646174610D0A003230253032782F2501
:103940003032782F2530327820253032783A2530C1
:1039500032783A2530327820256420756E6C6F639A
:103960006B0A00002DE9FF4165A0D0E90010CDE908
:103970000210012005F074FE634D0021E861FF2074
:1039800005F02AFE28640021FF2005F025FE68646A
:1039900005F038FC286200224121042005F072FE67
:1039A000686200220121042005F06CFEE86200221A
:1039B0000821042005F066FE28630022412104202E
:1039C00005F060FEA86200228121102005F05AFE59
:1039D000686300224FF40071102005F053FEA863C5
:1039E00000221821042005F04DFEE86302F0B6FE27
:1039F00001F0DAFE02F036FE01F038FF0020FFF79A
:103A000067F841F23424A04206D003F0EDFE2146CF
:103A10000020FFF799F901E003F05AFF4FF4E13479
:103A2000204604F06FFC02F0A1FFFEF7A4FC05F0B5
:103A300085FA02F0D3FD02F0E9FC062202A900207B
:103A400001F048FE314802F0D5FBE860E96830A09B
:103A500001F0F4FE4FF47A7705E035A001F0EEFEB8
:103A6000384601F0C1FE02F0F9F80028F5D14FF414
:103A7000FA76204604F016F930B1304604F03AFEEA
:103A800031A0FCF7CFFCF4E702F08CFD502080F36E
:103A90001188BFF34F8FBFF36F8F0024314E0CE0BE
:103AA00006EBC000D0E90412CDE900120289C36818
:103AB0004168604606F01EFA641C04EB440056F8A8
:103AC00030C0BCF1000FEBD1002080F311882648F4
:103AD000012300901A46394624A006F05FFCA86135
:103AE00006F042FA02460020034600900121A86930
:103AF00006F0DEFC002004F041FEBDE8FF8100007E
:103B00003636363636360000000000200000040845
:103B1000546F74616C206E756D626572206F6620E3
:103B2000666C617368203D202564200D0A0000004A
:103B3000657370383236365F6D7174745F696E69A3
:103B400074202E2E2E000000B5E7C8DDD6B8CEC6F4
:103B5000C4A3BFE9C1ACBDD3D6D0202E2E2E0D0AF2
:103B600000000000CCA600088D7F00084175746F2E
:103B700052656C6F616454696D657200A4B0524EF9
:103B8000524D534F4FF0FF38CDF8008000230122F3
:103B90000F21286A05F0BAFB0446C00730D0062082
:103BA000FEF760FD322004F0A5FDD6F800020028E3
:103BB0001FD14FF48061286A05F032FB012022906A
:103BC000642002462390002322A9286B05F004FEFE
:103BD0004146686C06F03CF80146012802D03DA041
:103BE00001F02CFE4BA001F029FE02E0012004F0C0
:103BF00081FDD6F800020028F8D00620FEF73DFD32
:103C0000A0072CD50820FEF72DFD322004F072FD10
:103C1000D7F8080200281BD109208DF8040044A21F
:103C200046A10DF10500FCF709FC0023642201A95F
:103C3000686B05F0D1FD0146012802D040A001F0DB
:103C4000FDFD4BA001F0FAFD02E0012004F052FD61
:103C5000D7F808020028F8D00820FEF70EFD60070C
:103C600016D50920FEF7FEFC322004F043FDD7F8FC
:103C70000C0230B945A001F0E1FD02E0012004F0A2
:103C800039FDD7F80C020028F8D00920FEF7F5FC22
:103C900020077FF579AF0A20FEF7E4FC322004F01C
:103CA00029FDD7F8100230B93FA001F0C7FD02E0AE
:103CB000012004F01FFDD7F810020028F8D00A20D8
:103CC000FEF7DBFC60E7000000004042000000203F
:103CD000000042425B6170705F7461736B5F61747E
:103CE00032346330325D207853656D6170686F7275
:103CF0006554616B6520675F73656D5F62656570B4
:103D0000206572726F7220636F646520697320256D
:103D1000640D0A005B6170705F7461736B5F6B654B
:103D2000795D2053312050726573730D0A000000D5
:103D3000736C6565703D31FFFFFF00002573000067
:103D40005B6170705F7461736B5F6D6F746F725DD8
:103D50002078517565756553656E64206572726F64
:103D60007220636F64652069732025640D0A00006A
:103D70005B6170705F7461736B5F6B65795D20531D
:103D8000322050726573730D0A0000005B61707021
:103D90005F7461736B5F6B65795D20533320507284
:103DA0006573730D0A0000005B6170705F7461736E
:103DB0006B5F6B65795D2053342050726573730DB2
:103DC0000A000000A8B00020DFF8D4B1754D2290A1
:103DD0002390249025900DF188094FF02A0A01AE16
:103DE0004FF0070826904FF0FF3401220094002383
:103DF0009102286A05F08AFA4005F4D5222026901F
:103E00000023642226A9E86A05F0E6FC2146286C16
:103E100005F01EFF0146012802D0634801F00EFDA7
:103E200047468DF8048061A1701CFCF707FB002356
:103E30004FF47A7201A9686B05F0CEFC01460128A7
:103E400002D05FA001F0FAFCB8468DF8047069A2B8
:103E50006CA1701CFCF7F2FA00234FF47A7201A9EE
:103E6000686B05F0B9FC0146012802D054A001F0AE
:103E7000E5FC842101A8FCF771FD00272297239718
:103E8000249766A0259701F0D9FC002402F06EFA71
:103E9000232838D0092C36D84E28F7D02A2807D026
:103EA0000BF80400641C09EB040101F801AC10E0FC
:103EB000002CEBD0641E00200BF80470229723978F
:103EC00024974A465146259701E01154401CA042D0
:103ED000FBD308208DF8040022AA4AA1701CFCF72D
:103EE000ADFA00234FF47A7201A9686B05F074FCF7
:103EF0000146012802D032A001F0A0FC842101A8D3
:103F0000FCF72CFDC2E726494AA001F097FC444685
:103F10008DF8048037A23BA1701CFCF78FFA4FF498
:103F20007A7700233A4601A9686B05F055FC0146F3
:103F3000012802D022A001F081FC842101A8FCF715
:103F40000DFD8DF8044042A1701CFCF777FA0023A8
:103F50003A4601A9686B05F03FFC0146012802D0F2
:103F600017A001F06BFC842101A8FCF7F7FC2020CE
:103F700026900023642226A9E86A05F02DFC4FF064
:103F8000FF31286C05F064FE0146012802D0064886
:103F900001F054FC4FF40061286A05F041F922E772
:103FA0006C01002000000020A4AF0008706167656C
:103FB000206B6579626F617264FFFFFF0000000093
:103FC0005B6170705F7461736B5F6B6579626F6169
:103FD00072645D2078517565756553656E64206502
:103FE00072726F7220636F64652069732025640D9F
:103FF0000A000000C7EBC4E3CAE4C8EBC3DCC2EBB1
:10400000000000006B6579626F6172642E74302E5F
:104010007478743D22257322FFFFFF005B6170708E
:104020005F7461736B5F6B6579626F6172645D0D64
:104030000A0000005B6170705F7461736B5F6B6599
:1040400079626F6172645D202573200D0A000000A3
:1040500070616765207061676530FFFFFF000000D9
:1040600008B500241F4D204FDFF880808DF80040F8
:104070004FF0FF3901264A466946D8F82C0005F072
:104080001DFD0128F7D19DF80000C10606D5C10726
:1040900002D0C5F8A44201E0C5F8A462810606D5A5
:1040A000810702D5C5F8A84201E0C5F8A86241061B
:1040B00006D5410702D5C7F8B44201E0C7F8B4629B
:1040C000010606D5000702D5C7F8B84201E0C7F8D7
:1040D000B86200231A461946D8F8400005F07CFB68
:1040E000C9E7000000804242000042420000002078
:1040F00086B000203C4E01904FF4C079471E0290DC
:104100000097002301224946306A05F0FFF8054672
:10411000000633D5B06804F003FE34A001F08EFB36
:1041200000244FF4FA78641CFEF725F905A9522003
:10413000FEF75FF918B901A8FEF7C6F828B10A2CF6
:1041400019D8404604F0D6FAEDE701A803F064FF61
:1041500000283EDA01A803F027FF00281AD09DF8B6
:10416000070000909DF806309DF805209DF804108A
:1041700022A001F063FBB06804F01EFDE80504D541
:1041800003F06CFF2AA001F059FB4FF47A7004F0A1
:10419000B1FAB5E7012003906420024604900023A1
:1041A00003A9306B05F018FB3946706C05F050FD23
:1041B0000146012802D02DA001F040FB9DF8070028
:1041C00000909DF806309DF805209DF8041037A05A
:1041D000CFE79DF8070000909DF806309DF8052078
:1041E0009DF804103FA0C4E7000000206164642033
:1041F0006E66632E2E2E0D0A000000005B455252A3
:104200004F525D2053706920666C61736820616451
:10421000642063617264202530325825303258257D
:1042200030325825303258206661696C0D0A000022
:104230005B4E4F544943455D20416C6C2063617275
:1042400064732073746F72656420696E2073706983
:1042500020666C6173682068617665206265656EB2
:104260002072656D6F7665640D0A00005B61707089
:104270005F7461736B5F617432346330325D2078D8
:1042800053656D6170686F726554616B6520675F1F
:1042900073656D5F62656570206572726F72206311
:1042A0006F64652069732025640D0A005B4E4F54CE
:1042B0004943455D2053706920666C6173682061D5
:1042C000646420636172642025303258253032588E
:1042D0002530325825303258207375636365737307
:1042E0000D0A00005B4E4F544943455D20537069F1
:1042F00020666C61736820636172642025303258D7
:1043000025303258253032582530325820616C72B1
:104310006561642065786973740D0A00A2B0002499
:10432000CCA109940B940C94D1E900211894199410
:10433000CDE90E21254616941794142111A8FCF7F7
:104340000DFBC64E4FF47A7A4FF0640801274FF008
:10435000FF39012001F048FA2046641C504500D97D
:104360000024002D50D0012D62D0022D6FD0032DDE
:10437000EFD1FF2009900023642209A9F06A05F01B
:104380002BFA4D464946306C05F062FC0146012887
:1043900002D0B3A001F052FA4FF4FA60CDE91A70DE
:1043A000002364221AA9306B05F016FA2946706CB6
:1043B00005F04EFC0146012802D0A9A001F03EFA0A
:1043C0009DF82F0000909DF82E309DF82D209DF82F
:1043D0002C10B3A001F032FA0BA8FDF775FF0028EE
:1043E00077D0F02009900023642209A9F06A05F033
:1043F000F3F92946306C05F02BFC0146012802D068
:1044000097A001F01BFAC2E0B4F5FA7FA1D1FDF745
:10441000B2FF0AA95220FDF7ECFF002899D101252F
:104420009DF829209DF82810A6A001F007FA90E732
:104430000BA8FDF749FF00288BD19DF82F000090B5
:104440009DF82E309DF82D209DF82C1000E019E0ED
:10445000AAA001F0F3F90BA803F0DEFD002888DB29
:104460004FF40071306A04F0DBFE08208DF8740010
:10447000002364221CA9F06B05F0AEF918211CA8DA
:10448000FCF76CFA0BA803F0EFFD0BA8FDF7E4FFB7
:104490000BAB0EAA04216020FDF744FF50B19DF83C
:1044A0002F0000909DF82E309DF82D209DF82C10A7
:1044B0009CA010E011A90420FDF782FF70B19DF8C7
:1044C0002F0000909DF82E309DF82D209DF82C1087
:1044D00000E0BBE09EA001F0B1F95BE09DF8440074
:1044E000402859D09DF82F0000909DF82E309DF85F
:1044F0002D209DF82C10A4A001F0A0F90DA90120F9
:10450000FEF776FA08A90120FEF730FA40208DF870
:1045100058009DF823008DF859009DF821008DF872
:104520005A009DF822008DF85B009DF820008DF860
:104530005C009DF834008DF85D009DF835008DF825
:104540005E009DF836008DF85F0016A90420FEF786
:1045500045F8002844D00025CDE91A7800236422CC
:104560001AA9306B05F038F94946706C05F070FBFC
:104570000146012802D03AA001F060F96D1C022D1D
:10458000EAD311A90420FDF71BFF00285AD08EA002
:1045900001F054F90025DCE69DF848000DF1100CFF
:1045A0009DF84B309DF84A209DF849108CE80F008B
:1045B0009DF845209DF82F3002F50052CDE90032DC
:1045C0009DF847109DF84600CDE902019DF82E3078
:1045D0009DF82D209DF82C108248FBF723FF8DE7D6
:1045E0009DF820000DF1100C9DF836309DF8352017
:1045F0009DF834108CE80F009DF82F009DF82230B4
:104600009DF821209DF823108DE80F009DF82E3095
:104610009DF82D209DF82C107348FBF703FFCDE982
:104620001A78002364221AA9306B05F0D5F84946A0
:10463000706C05F00DFB01460128A2D008A001F026
:10464000FDF89EE7642001F0CFF89AE7642001F0BE
:10465000CBF8C1E6FFFFFFFFFFFF000000000020D6
:104660005B6170705F7461736B5F6174323463306F
:10467000325D207853656D6170686F726554616B4F
:104680006520675F73656D5F626565702065727236
:104690006F7220636F64652069732025640D0A00C2
:1046A000436172642025303258253032582530322B
:1046B000582530325820697320696E76616C6964C0
:1046C0000D0A00005B4E4F544943455D2043617223
:1046D00064205265717565737420737563636573C7
:1046E000732C63617264207479706520697320256E
:1046F00030325820253032580D0A00005B4E4F549E
:104700004943455D2043617264202530325825308D
:104710003258253032582530325820666F756E6415
:104720000D0A00005B4552524F525D204361726496
:104730002025303258253032582530325825303235
:10474000582041757468206661696C0D0A0000008C
:104750005B4552524F525D204361726420253032D6
:10476000582530325825303258253032582072655D
:104770006164206461746120626C6F636B2034201B
:104780006661696C0D0A00005B4E4F544943455DFC
:10479000204361726420253032582530325825304C
:1047A000325825303258206461746120626C6F6326
:1047B0006B2034206973206E6F74207265636F7292
:1047C0006465640D0A0000005B4E4F544943452068
:1047D0005D204361726420686173206C6566740DAE
:1047E0000A000000E8AF000834B00008A4B00020C0
:1047F000384C4FF4007701AE451E229000950023FF
:1048000001223946206A04F081FD8005F6D5012099
:104810008DF8040030A235A1701CFBF70FFE0023B9
:10482000642201A9606B04F0D7FF0146012802D081
:104830002FA001F003F8112022900023642222A966
:10484000E06A04F0C9FF2946206C05F001FA014630
:10485000012802D032A000F0F1FF02F03FF840A0A2
:1048600000F0ECFF40F6B83003F044FF842101A8CB
:10487000FCF774F802208DF804003FA21BA1701C05
:10488000FBF7DCFD0023642201A9606B04F0A4FFA8
:104890000146012802D016A000F0D0FF01F0D6FF9B
:1048A0003AA000F0CBFF102022900023642222A91E
:1048B000E06A04F091FF2946206C05F0C9F9014631
:1048C000012802D037A000F0B9FF842101A8FCF72D
:1048D00045F893E70000002070616765302E74365C
:1048E0002E7069633D36FFFFFF0000002573000056
:1048F0005B6170705F7461736B5F6D6F746F725D1D
:104900002078517565756553656E64206572726FA8
:104910007220636F64652069732025640D0A0000AE
:104920005B6170705F7461736B5F617432346330AC
:10493000325D207853656D6170686F726554616B8C
:104940006520675F73656D5F626565702065727273
:104950006F7220636F64652069732025640D0A00FF
:104960004F70656E20746865206C6F636B2E2E2E01
:104970002E2E2E0A0000000070616765302E7436FE
:104980002E7069633D34FFFFFF000000436C6F73BE
:104990006520746865206C6F636B2E2E2E2E2E2E74
:1049A0000A0000005B6170705F7461736B5F6D6F14
:1049B000746F725D207853656D6170686F726554B5
:1049C000616B6520675F73656D5F6265657020650B
:1049D00072726F7220636F64652069732025640DA5
:1049E0000A000000ADF5087D224D6E464FF0FF38FD
:1049F0004FF4007742466946A86B05F05FF8014620
:104A0000012803D01CA000F019FFF3E70024305D5B
:104A100031282BD130194178222927D1C07831286B
:104A200024D101208690642002468790002386A925
:104A3000286B04F0D1FE4146686C05F009F9014687
:104A4000012802D019A000F0F9FE04208DF804021C
:104A50000023642280A9E86B04F0BEFE182180A820
:104A6000FBF77CFF3946286A04F0DAFB641CBC4281
:104A7000CDD3BFE7000000205B6170705F7461738D
:104A80006B5F6D7174745D207851756575655265E5
:104A90006365697665206572726F7220636F646505
:104AA0002069732025640D0A000000005B617070AE
:104AB0005F7461736B5F617432346330325D207890
:104AC00053656D6170686F726554616B6520675FD7
:104AD00073656D5F62656570206572726F722063C9
:104AE0006F64652069732025640D0A0006A000F03C
:104AF000A5FE4FF47A74204603F0FCFD02F0DEF8C8
:104B000002F096F8F7E700006170705F7461736BF4
:104B10005F6D717474686561727420747275652E4E
:104B20002E2E2E2E2E0A000012A000F087FE1A4E06
:104B30001A4D4FF47A7800274FF400792C68322010
:104B400003F0D8FD002CF9D028688442F6D1002368
:104B500042461349B06B04F03FFE0146012802D0E3
:104B6000104800F06BFE2F6049460D48FBF7D4FE5D
:104B7000E4E700006170705F7461736B5F6D6F6E6E
:104B800069746F7220637265617465207375636305
:104B9000657373200D0A000000000020D000002083
:104BA0001918002060AF000892B040216846FBF75A
:104BB000D5FE384C6D464FF0FF3632466946A06A46
:104BC00004F07CFF0128F8D1694633A000F036FEDE
:104BD0009DF80400302803D12021206A04F020FB36
:104BE0009DF80400312803D14021206A04F018FB0D
:104BF0009DF80400322807D18021206A04F010FBC0
:104C000040216846FBF7AAFE9DF80400332804D132
:104C10004FF48071206A04F003FB9DF804003428EF
:104C20000DD14FF40051206A04F0FAFA194900201E
:104C300048312A1892790A54401C0628F9D39DF865
:104C4000040035280CD14FF40061206A04F0E8FA22
:104C5000164900202A1892790A54401C0628F9D3D4
:104C600001201090642002461190002310A9206BAF
:104C700004F0B2FD3146606C04F0EAFF0146012801
:104C800002D00BA000F0DAFD40216846FBF766FE7B
:104C900093E70000000000205B6170705F74617337
:104CA0006B5F6C63645D2025730D0A006C0100204E
:104CB0005B6170705F7461736B5F61743234633019
:104CC000325D207853656D6170686F726554616BF9
:104CD0006520675F73656D5F6265657020657272E0
:104CE0006F7220636F64652069732025640D0A006C
:104CF000AAB00020224D2490259026900446461EFE
:104D000027900096002301221021286A04F0FEFA61
:104D1000C00600D5641C0F2CF3D9002428A901205B
:104D2000FDF724FE29A90120FDF762FE9DF8A200EF
:104D30009DF8A5209DF8A4108DE807009DF8A130EE
:104D40009DF8A3200FA124A8FBF778FB06208DF87F
:104D50000C0024AA12A10DF10D00FBF76FFB00233C
:104D6000642203A9686B04F037FD0146012802D0D4
:104D700011A000F063FD842103A8FBF7EFFDC0E75D
:104D8000000000203230253032782F253032782F45
:104D90002530327820253032783A253032780000BC
:104DA00070616765302E74302E7478743D222573DF
:104DB00022FFFFFF000000005B6170705F74617391
:104DC0006B5F7274635D2078517565756553656EB0
:104DD00064206572726F7220636F6465206973204E
:104DE00025640D0A000000001FB50127474EADF8ED
:104DF0000C704FF0FF384FF47A79CDF80080002323
:104E000001226021306A04F081FA0546800659D5F6
:104E1000706803F085FF062100243222084602F064
:104E2000F5FD00E0641C03F003F810B1052CF9D384
:104E300001E0052C0BD336A000F000FDC8220721AD
:104E4000002002F0E3FD3CA000F0F8FC34E03FA0BD
:104E500000F0F4FC03A802F0E1FE38B1C0B202F0A9
:104E600057FE014643A000F0E9FC20E0BDF80C101D
:104E700046A000F0E3FCBDF80C0002F021FF38B3BF
:104E8000CDE901790023642201A9306B04F0A4FC70
:104E90004146706C04F0DCFE0146012802D040A0BF
:104EA00000F0CCFC03213222084602F0AFFDC822FC
:104EB0000721002002F0AAFD706803F07DFE48463D
:104EC00003F018FC680698D502F0E4FDB8B119E0CB
:104ED0006420CDE901700246002301A9306B04F083
:104EE0007BFC4146706C04F0B3FE0146012802D001
:104EF0002BA000F0A3FC322205210846D5E738A0FC
:104F000000F09CFC484603F0F5FB76E7000000202B
:104F10004E6F2066696E67657220646574656374A0
:104F200065642C2065786974206F7065726174699E
:104F30006F6E210D0A0000006164642073666D20AD
:104F40006572726F72210D0A0000000046696E677B
:104F50006572732064657465637465642E204E6F9A
:104F60007720616464207072696E74732E2E2E0D2A
:104F70000A000000BBF1C8A1CEB4CAB9D3C3B5C4FE
:104F8000D3C3BBA769642025730D0A00676574202D
:104F9000757365722069643A2025640D0A0000006B
:104FA0005B6170705F7461736B5F61743234633026
:104FB000325D207853656D6170686F726554616B06
:104FC0006520675F73656D5F6265657020657272ED
:104FD0006F7220636F64652069732025640D0A0079
:104FE00064656C65746520616C6C2073666D2073FC
:104FF0007563657373210D0A000000008AB00126F5
:105000000020534DADF820604FF47A78471E099088
:10501000404603F06FFB07216022084602F0F6FCD1
:1050200002F006FF0028F3D106213222084602F0E2
:10503000EDFC48A000F002FC08A802F0A1FC04006E
:1050400054D0FF2009900023642209A9E86A04F0E3
:10505000C3FB3946286C04F0FBFD0146012802D051
:1050600047A000F0EBFB40F2DC50CDE906600023E6
:10507000642206A9286B04F0AFFB3946686C04F083
:10508000E7FD0146012802D03DA000F0D7FBF0204B
:1050900009900023642209A9E86A04F09DFB3946BF
:1050A000286C04F0D5FD0146012802D034A000F0A0
:1050B000C5FBE0B202F02CFD0146BDF8202040A067
:1050C00000F0BCFB03213222084602F09FFCE0B254
:1050D00002F01EFD0146BDF820203BA000F0AEFB13
:1050E000C8220721002002F091FC91E710208DF8E2
:1050F0000400002364226946E86B04F06DFB18216C
:105100006846FBF72BFC4FF40071286A04F088F81E
:105110006420CDE906600246002306A9286B04F04E
:105120005BFB3946686C04F093FD0146012802D010
:1051300013A000F083FB002002F0EAFC0146BDF85A
:1051400020202CA000F07AFB322205210846BCE783
:1051500000000020576527766520676F7420612066
:1051600066696E6765722E204E6F772077652772AD
:1051700065206272757368696E672E2E2E0D0A00A7
:105180005B6170705F7461736B5F61743234633044
:10519000325D207853656D6170686F726554616B24
:1051A0006520675F73656D5F62656570206572720B
:1051B0006F7220636F64652069732025640D0A0097
:1051C000666C6173650D0A00427275736820612018
:1051D00066696E6765727072696E74202573204906
:1051E00064656E74696679207769746869643D25C1
:1051F000640D0A006F6B6F6B6F6B6F6B6F6B0D0ADB
:105200000000000096B044216846FBF7A7FB964CCF
:105210000A256E464FF0FF373A466946606A04F049
:105220004DFC0146012803D090A000F007FBF3E7F6
:1052300069469EA000F002FBA9A16846FBF7C2FAEE
:10524000002840D06846A9A1FBF7B6FAA7A1002024
:10525000FBF7B2FAFBF7A2FA0C2801D2002100E01A
:1052600040218DF84710B0FBF5F105FB1101B0FBB3
:10527000F5F001EB00108DF844009CA10020FBF735
:105280009BFAFBF78BFAB0FBF5F105FB1101B0FBC4
:10529000F5F001EB00108DF8450094A10020FBF71C
:1052A0008BFAFBF77BFAB0FBF5F105FB1101B0FBC4
:1052B000F5F001EB00108DF8460011A90120FDF773
:1052C0005DFC8BA0B1E093A16846FBF77BFAE0B3ED
:1052D00086A16846FBF770FA84A10020FBF76CFA00
:1052E000FBF75CFAA0F5FA60B0FBF5F105FB1101E4
:1052F000B0FBF5F001EB00108DF84B007BA1002016
:10530000FBF75AFAFBF74AFAB0FBF5F105FB11017E
:10531000B0FBF5F001EB00108DF8490073A10020FF
:10532000FBF74AFAFBF73AFAB0FBF5F105FB11017E
:10533000B0FBF5F001EB00108DF84A006BA10020E6
:10534000FBF73AFAFBF72AFA00E00EE0B0FBF5F1C2
:1053500005FB1101B0FBF5F001EB00108DF84800E2
:1053600012A90120FDF7BEFB61E06DA16846FBF7C5
:1053700029FA002876D09DF80600312803D1202193
:10538000206A03F04DFF9DF80600322803D140212A
:10539000206A03F045FF9DF80600332803D18021E1
:1053A000206A03F03DFF9DF80600342804D14FF435
:1053B0008071206A03F034FF9DF8060035280DD176
:1053C0004FF40051206A03F02BFF27490020483199
:1053D0003218127A0A54401C0628F9D39DF80600A8
:1053E00036280CD14FF48051206A03F019FF4E4942
:1053F00000203218127A0A54401C0628F9D39DF86E
:105400000600372805D1E06800F05EFE47A000F0F6
:1054100015FA9DF80600382809D1302000F048FE22
:10542000474800F0E7FEE06046A000F007FA0120E0
:105430001390642002461490002313A9206B04F0FB
:10544000CBF93946606C04F003FC0146012804D016
:1054500000E007E042A000F0F1F944216846FBF7C4
:105460007DFAD9E64EA0E0E7000000205B61707095
:105470005F7461736B5F75736172745D20785175D1
:1054800065756552656365697665207573617274CB
:105490005F7061636B6574206572726F7220636FF9
:1054A00064652069732025640D0A00005B617070DB
:1054B0005F7461736B5F75736172745D2078517591
:1054C000657565526563656976652075736172748B
:1054D0005F7061636B65742025730D0A0000000026
:1054E00054494D4520534554000000002D00000054
:1054F0005B6170705F7461736B5F75736172745D13
:1055000020727463207365742074696D65206F6BFD
:105510000D0A00004441544520534554000000004A
:1055200041444D494E2D00006C0100205B666C61CA
:1055300073685F726561645D6F6B0D0A0000000047
:10554000000004085B666C6173685F657261736577
:105550005F736563746F725D6F6B0D0A000000000E
:105560005B6170705F7461736B5F61743234633060
:10557000325D207853656D6170686F726554616B40
:105580006520675F73656D5F626565702065727227
:105590006F7220636F64652069732025640D0A00B3
:1055A0005B6170705F7461736B5F75736172745D62
:1055B00020757361727420696E76616C6964206312
:1055C0006F6D6D616E640D0A00000000A2B00F4D9A
:1055D0000F4F4FF0FF366C464FF47A7832466946EB
:1055E000686B04F06BFA0128F8D1601CFBF728F90E
:1055F0000246611C384602F087FE84216846FBF7AC
:10560000ADF9404603F076F8E8E70000000000201E
:105610000014014070B515460C46064600F07AFFAE
:10562000A02000F049FF00F0A1FF28B119A0FAF76F
:10563000F9FE4FF0FF3070BD304600F03DFF00F046
:1056400095FF28B119A0FAF7EDFE6FF0010070BDCB
:1056500000F060FFA12000F02FFF00F087FF68B18D
:105660000CA0FAF7DFFE6FF0020070BD00F000FF43
:1056700004F8010B5DB1002000F0A0FE6D1EF5D214
:1056800000F060FF0FA0FAF7CDFE002070BD0120F2
:10569000F2E70000646576696365206164647265A1
:1056A0007373206572726F720D0A0000776F7264F7
:1056B0002061646472657373206572726F720D0A83
:1056C0000000000072656164207375636365737325
:1056D0000D0A000070B515460C46064600F01AFF8C
:1056E000A02000F0E9FE00F041FF28B113A0FAF776
:1056F00099FE4FF0FF3070BD304600F0DDFE00F047
:1057000035FF90B113A0FAF78DFE6FF0010070BD68
:1057100014F8010B00F0D0FE00F028FF28B113A010
:10572000FAF780FE6FF0020070BD6D1EF0D200F03F
:1057300009FF13A0FAF776FE002070BD6465766954
:1057400063652061646472657373206572726F7241
:105750000D0A0000776F7264206164647265737370
:10576000206572726F720D0A00000000646174613E
:10577000207772697465206572726F720D0A00007D
:10578000777269746520737563636573730D0A00BE
:10579000034610B50020024603E09C5C6040521CAA
:1057A000D2B28A42F9D310BD1CB501212020FCF7EA
:1057B000DBFF4FF48070009001208DF8040000247E
:1057C0008DF8064003218DF805108DF80700694615
:1057D0000348FCF7CAFC0348C0F8A0421CBD000007
:1057E000001402400080424202F084BF2DE9F041E3
:1057F0004FF0E0280024D8F814700E4A0E4BD8F869
:1058000018501268B2FBF3F6464303F005FB41461D
:105810008869A842FCD002D2A5EB000202E0A7EB07
:1058200000022A4414440546B442F1D3BDE8F041D5
:1058300004F034BD9400002040420F000FB44FF03C
:10584000FF3170B5084D05ACE86904F001FA214656
:105850000498FAF7E1FD00231A461946E86903F0B7
:10586000BBFF70BC5DF814FB0000002010B50121E7
:105870004020FCF779FF09484FF4007101240160D2
:1058800004710321417100218171C17101460448F5
:10589000FCF76BFC0348C0F8A44210BDA800002030
:1058A00000180240000043422DE9F05F524D80464F
:1058B0004FF400704FF0010A2860002485F804A01E
:1058C0004FF0030B85F805B0AC7157462646EC71D6
:1058D00029464A48FCF749FCDFF82491C9F8A4623C
:1058E0001220FFF781FFC9F8A4721E20FFF77EFF88
:1058F0004FF4007028602E7185F805B0AE71EE711E
:1059000029463E48FCF731FC4FF47A664D4609E0E3
:105910000120641CFFF76AFFB44203D34FF0FF304D
:10592000BDE8F09FD5F824020028F1D1002408E05A
:105930000120641CFFF75AFF642C02D36FF00100B2
:10594000EEE7D5F824020028F2D0002408E0012078
:10595000641CFFF74BFF642C02D36FF00200DFE7FB
:10596000D5F824020028F2D10027A94600260725F1
:10597000002408E00120641CFFF738FF642C02D3E8
:105980006FF00300CCE7D9F824020028F2D02820D9
:10599000FFF72CFFD9F8240290B10AFA05F0304342
:1059A000C6B2002408E00120641CFFF71FFF642C2E
:1059B00002D36FF00400B3E7D9F824020028F2D133
:1059C0006D1ED5D508F807607F1C052FCEDB98F833
:1059D000001098F8010098F80220014498F803009C
:1059E0001044084498F80410C0B2814202D06FF00D
:1059F000050095E7002093E7A8000020001802406A
:105A00000000434270B505460C461CA000F03AFB6E
:105A10004FF47A711EA000F005F910B14FF0FF307D
:105A200070BD1CA000F02EFB1EA000F02BFB284632
:105A300000F028FB1BA000F025FB1BA000F022FBC0
:105A400018A000F01FFB204600F01CFB15A000F082
:105A500019FB16A000F016FB41F2883421460CA079
:105A600000F0E0F838B1214611A000F0DBF810B1E9
:105A70006FF0010070BD002070BD000041542B4349
:105A8000574D4F44455F4355523D310D0A000000CC
:105A90004F4B000041542B43574A41505F435552EE
:105AA0003D000000220000002C0000000D0A000054
:105AB000434F4E4E454354007FB5054600200090AD
:105AC00001900290039014460E461CA000F0DAFAF2
:105AD0001EA000F0D7FA284600F0D4FA1BA000F070
